:100000000C943B010C94E3060C94B8060C948D06FA
:100010000C9462060C9437060C940C060C94E105C3
:100020000C94B6050C946C010C946C010C946C014E
:100030000C946C010C946C010C946C010C946C018C
:100040000C946C010C946C010C946C010C946C017C
:100050000C946C010C946C010C946C010C946C0568
:100060000C946C010C9438070C940E070C946C01E2
:100070000C946C010C946C010C946C010C946C014C
:100080000C946C010C946C010C946C010C946C013C
:100090000C946C010C946C010C946C010C946C012C
:1000A0000C946C010C946C010C946C010C946C011C
:1000B0000C946C010C946C010C946C010C946C010C
:1000C0000C946C010C946C010C946C010C946C01FC
:1000D0000C946C010C946C010C946C010C946C01EC
:1000E0000C946C010C94D1010C9469020C9496024E
:1000F0000C94AB010C94BF010C94CD010C949201B3
:100100000C94C3010C949A010C94FF020C94A70167
:100110000C944C030C94A5020C943B040C948C019D
:100120000C9468020C94C7020C94180A0C949E015B
:100130000C94B1010C94B5010C94B9010C94960186
:100140000C940C040C94A1010C94B9020C94CC01F5
:100150000C94C70100002100240027002A002D0074
:100160003000330001010000040107010A01000012
:100170002200250028002B002E003100340002014F
:100180000000050108010B010000200023002600EB
:1001900029002C002F00320000010000030106019D
:1001A00009010505050507050808080802020202FD
:1001B0000A0A080804040404010101010101010103
:1001C0000303030303030303040707070C0C0C0CCE
:1001D0000C0C0C0C020202020606060606060606B7
:1001E0000B0B0B0B0B0B0B0B010210202008081044
:1001F0002040102040800201020108040201010297
:10020000040810204080804020100804020180046F
:1002100002018040201008040201080402010102CA
:1002200004081020408001020408102040800000D3
:100230000A0B02090C0D0E08070304010000000060
:1002400000000000000000000000000000000000AE
:10025000000000000000000000001211100000006B
:10026000000000000000000000000000000000008E
:1002700000000000180A11241FBECFEFD1E2DEBF3C
:10028000CDBF00E00CBF12E0A0E0B2E0EAE0FAE18E
:1002900000E00BBF02C007900D92AC37B107D9F751
:1002A00023E0ACE7B2E001C01D92A133B207E1F751
:1002B00011E0CBE3D1E000E006C021970109802FD7
:1002C000FE010E94D60ACA33D10780E00807A9F7C9
:1002D0000E946E070C94030D0C9400008150823133
:1002E00008F05AC0E82FF0E08827E658FE4F8F4FFD
:1002F0000C94D60A9A019E018C0192019601CC01C0
:10030000A101A701AB01B101B501B901BF01C30151
:10031000CC01C701CD01D101809180008F778093FE
:1003200080000895809180008F7DF9CF80918000BA
:10033000877FF5CF84B58F7784BD089584B58F7D91
:10034000FBCF8091B0008F778093B00008958091AB
:10035000B0008F7DF9CF809190008F7780939000CF
:100360000895809190008F7DF9CF80919000877FD4
:10037000F5CF8091A0008F778093A00008958091A1
:10038000A0008F7DF9CF8091A000877FF5CF80916D
:1003900020018F77809320010895809120018F7D27
:1003A000F9CF80912001877FF5CFCF93DF93282F5E
:1003B00030E0F901E25DFD4F8491F901E851FE4F13
:1003C000D491F901EE55FE4FC491CC23A1F08111D7
:1003D0000E946E01EC2FF0E0EE0FFF1FE857FE4F7A
:1003E000A591B491EC91ED2381E090E009F480E0D7
:1003F000DF91CF91089580E090E0FACF1F93CF93E3
:10040000DF93282F30E0F901E25DFD4F8491F9017F
:10041000E851FE4FD491F901EE55FE4FC491CC2323
:10042000A9F0162F81110E946E01EC2FF0E0EE0F63
:10043000FF1FE259FE4FA591B4918FB7F894EC914C
:10044000111108C0D095DE23DC938FBFDF91CF91CF
:100450001F910895DE2BF8CFCF93DF9390E0FC013E
:10046000E851FE4F24918E559E4FFC0184918823C4
:10047000C9F090E0880F991FFC01EC5AFE4FA5913E
:10048000B491FC01E259FE4FC591D49161110DC0A8
:100490009FB7F8948C91209582238C938881282390
:1004A00028839FBFDF91CF910895623051F49FB7A9
:1004B000F8943C91822F809583238C93E8812E2B96
:1004C000EFCF8FB7F894EC912E2B2C938FBFEACF00
:1004D0000895AF92BF92CF92DF92EF92FF920F9367
:1004E0001F93CF93DF936C017B018B01040F151FCA
:1004F000EB015E01AE18BF08C017D10759F0699132
:10050000D601ED91FC910190F081E02DC601199585
:10051000892B79F7C501DF91CF911F910F91FF9042
:10052000EF90DF90CF90BF90AF900895FC01538D76
:10053000448D252F30E0842F90E0821B930B5417BD
:1005400010F0CF96089501970895FC01918D828D4A
:10055000981761F0A28DAE0FBF2FB11D5D968C91E3
:10056000928D9F5F9F73928F90E008958FEF9FEF22
:100570000895FC01918D828D981731F0828DE80FDE
:10058000F11D858D90E008958FEF9FEF0895FC0198
:10059000918D228D892F90E0805C9F4F821B910965
:1005A0008F739927089580E992E00E94C70221E0A5
:1005B000892B09F420E0822F0895FC01A48DA80F57
:1005C000B92FB11DA35ABF4F2C91848D90E0019695
:1005D0008F739927848FA689B7892C93A089B189B5
:1005E0008C91837080648C93938D848D981306C056
:1005F0000288F389E02D80818F7D80830895EF92BA
:10060000FF920F931F93CF93DF93EC0181E0888FCC
:100610009B8D8C8D98131AC0E889F989808185FF9C
:1006200015C09FB7F894EE89FF896083E889F9893E
:1006300080818370806480839FBF81E090E0DF9140
:10064000CF911F910F91FF90EF900895F62E0B8D93
:1006500010E00F5F1F4F0F731127E02E8C8D8E114E
:100660000CC00FB607FCFACFE889F989808185FFB5
:10067000F5CFCE010E94DD02F1CFEB8DEC0FFD2F07
:10068000F11DE35AFF4FF0829FB7F8940B8FEA8970
:10069000FB8980818062CFCFCF93DF93EC01888D7F
:1006A0008823B9F0AA89BB89E889F9898C9185FDED
:1006B00003C0808186FD0DC00FB607FCF7CF8C917B
:1006C00085FFF2CF808185FFEDCFCE010E94DD0254
:1006D000E9CFDF91CF91089580E090E0892B29F058
:1006E0000E94D30281110E94000080E090E0892BDB
:1006F00049F080E090E0892B29F00E9400008111F0
:100700000E94000080E090E0892B49F080E090E0BA
:10071000892B29F00E94000081110E94000080E0D6
:1007200090E0892B49F080E090E0892B29F00E942D
:10073000000081110C94000008958CE10E94D50105
:10074000892B21F461E08CE10C94FE0108958CE189
:100750000E94D501019721F460E08CE10C94FE0128
:1007600008958BE10E94D50161E0892B09F060E0DA
:100770008BE10E94FE018091100290911102823063
:10078000910538F0880F991F880F991F05970197D9
:10079000F1F78CE10E94D50140917F0250918002D7
:1007A0006091810270918202019769F44F5F5F4FFF
:1007B0006F4F7F4F40937F0250938002609381027E
:1007C0007093820208954150510961097109F2CF75
:1007D00088E10E94D50121E0892B09F020E0822FD9
:1007E00008950E94A7038DE10E94D501019729F089
:1007F00080917D02811106C0089587E10E94D50194
:100800000197B1F70E94B1038DE10E94D5010197D4
:1008100051F310927D02E7CF83E00E94D50101974A
:1008200089F482E00E94D501892B89F480918302AA
:1008300090918402A0918502B09186020197A1094E
:10084000B10910C082E00E94D501892B79F780910F
:10085000830290918402A0918502B0918602019654
:10086000A11DB11D8093830290938402A093850201
:10087000B0938602089582E00E94D501019789F421
:1008800083E00E94D501892B89F4809183029091A5
:100890008402A0918502B09186020196A11DB11D2E
:1008A00010C083E00E94D501892B79F780918302E3
:1008B00090918402A0918502B09186020197A109CE
:1008C000B1098093830290938402A0938502B09330
:1008D00086020895FC0101900020E9F73197AF01ED
:1008E000481B590BBC0180E992E00C946902CF933C
:1008F000DF93FC01448155816081718180E992E040
:100900000E946902EC018AE292E00E946A048C0F64
:100910009D1FDF91CF910895FC0180819181009707
:1009200011F00C94890B08950F931F93CF93DF93CD
:10093000EC0188819981009759F02A813B81261723
:10094000370730F081E0DF91CF911F910F9108952B
:100950008B016F5F7F4F0E94120C009759F09983B3
:1009600088831B830A832C813D81232B59F7FC014B
:100970001082E8CF80E0E7CFEF92FF920F931F93B2
:10098000CF93DF93EC01FB01E080F180E114F104EF
:1009900011F10481158101151105A9F08C819D814A
:1009A000080F191FB801CE010E949404882399F002
:1009B000288139818C819D81B701820F931F0E940C
:1009C000FC0C1D830C83CE01DF91CF911F910F9101
:1009D000FF90EF90089588819981009711F00E940F
:1009E000890B198218821D821C821B821A82EBCF0E
:1009F000EF92FF920F931F93CF93DF93EC017B0154
:100A00008A01BA010E94940428813981811114C09D
:100A10002115310519F0C9010E94890B198218822C
:100A20001D821C821B821A82CE01DF91CF911F9101
:100A30000F91FF90EF9008951D830C83B701C901BA
:100A40000E94FC0CF1CFEF92FF920F931F93CF9374
:100A5000DF93CDB7DEB7A2970FB6F894DEBF0FBE17
:100A6000CDBF8C01CB01BA01F80111821082138233
:100A70001282158214822AE0AE014F5F5F4F7A0125
:100A80000E94450AF70101900020E9F73197AF0174
:100A90004E195F09B701C8010E94F804A2960FB66B
:100AA000F894DEBF0FBECDBFDF91CF911F910F91A4
:100AB000FF90EF900895FC01118210821382128240
:100AC00015821482FB0101900020E9F73197AF01F4
:100AD000461B570B0C94F8041F920F920FB60F92FF
:100AE00011242F933F938F939F93AF93BF93809144
:100AF0008C0290918D02A0918E02B0918F02309164
:100B00008B0223E0230F2D3758F50196A11DB11D4F
:100B100020938B0280938C0290938D02A0938E027F
:100B2000B0938F028091870290918802A0918902F0
:100B3000B0918A020196A11DB11D80938702909306
:100B40008802A0938902B0938A02BF91AF919F91CE
:100B50008F913F912F910F900FBE0F901F9018957E
:100B600026E8230F0296A11DB11DD2CF1F920F922E
:100B70000FB60F9211240BB60F922F933F934F9302
:100B80005F936F937F938F939F93AF93BF93EF93F5
:100B9000FF93E0910E02F0910F021995FF91EF91F2
:100BA000BF91AF919F918F917F916F915F914F9185
:100BB0003F912F910F900BBE0F900FBE0F901F9083
:100BC00018951F920F920FB60F9211240BB60F9229
:100BD0002F933F934F935F936F937F938F939F9345
:100BE000AF93BF93EF93FF93E0910C02F0910D024E
:100BF0001995FF91EF91BF91AF919F918F917F9147
:100C00006F915F914F913F912F910F900BBE0F907D
:100C10000FBE0F901F9018951F920F920FB60F9254
:100C200011240BB60F922F933F934F935F936F93C3
:100C30007F938F939F93AF93BF93EF93FF93E09135
:100C40000202F09103021995FF91EF91BF91AF91CC
:100C50009F918F917F916F915F914F913F912F91D4
:100C60000F900BBE0F900FBE0F901F9018951F9204
:100C70000F920FB60F9211240BB60F922F933F9342
:100C80004F935F936F937F938F939F93AF93BF9394
:100C9000EF93FF93E0910002F09101021995FF910B
:100CA000EF91BF91AF919F918F917F916F915F91E4
:100CB0004F913F912F910F900BBE0F900FBE0F9051
:100CC0001F9018951F920F920FB60F9211240BB61A
:100CD0000F922F933F934F935F936F937F938F93D5
:100CE0009F93AF93BF93EF93FF93E0910A02F0912C
:100CF0000B021995FF91EF91BF91AF919F918F9149
:100D00007F916F915F914F913F912F910F900BBE0B
:100D10000F900FBE0F901F9018951F920F920FB655
:100D20000F9211240BB60F922F933F934F935F9323
:100D30006F937F938F939F93AF93BF93EF93FF93A3
:100D4000E0910802F09109021995FF91EF91BF918E
:100D5000AF919F918F917F916F915F914F913F9153
:100D60002F910F900BBE0F900FBE0F901F901895F4
:100D70001F920F920FB60F9211240BB60F922F9362
:100D80003F934F935F936F937F938F939F93AF9313
:100D9000BF93EF93FF93E0910602F091070219953C
:100DA000FF91EF91BF91AF919F918F917F916F9143
:100DB0005F914F913F912F910F900BBE0F900FBEFF
:100DC0000F901F9018951F920F920FB60F9211243B
:100DD0000BB60F922F933F934F935F936F937F9335
:100DE0008F939F93AF93BF93EF93FF93E091040290
:100DF000F09105021995FF91EF91BF91AF919F91ED
:100E00008F917F916F915F914F913F912F910F90B3
:100E10000BBE0F900FBE0F901F9018951F920F9250
:100E20000FB60F9211240BB60F922F933F934F934F
:100E30005F936F937F938F939F93AF93BF93EF9342
:100E4000FF9380E992E00E94DD02FF91EF91BF9154
:100E5000AF919F918F917F916F915F914F913F9152
:100E60002F910F900BBE0F900FBE0F901F901895F3
:100E70001F920F920FB60F9211240BB60F922F9361
:100E80008F939F93EF93FF93E091A002F091A102C3
:100E90008081E091A602F091A70282FD1DC09081A1
:100EA0008091A9028F5F8F732091AA02821741F06F
:100EB000E091A902F0E0E057FD4F958F8093A902E1
:100EC000FF91EF919F918F912F910F900BBE0F90FB
:100ED0000FBE0F901F9018958081F2CFCF93DF93B4
:100EE000CDB7DEB7A7970FB6F894DEBF0FBECDBF64
:100EF000789484B5826084BD84B5816084BD85B5F5
:100F0000826085BD85B5816085BD80916E00816000
:100F100080936E00109281008091810082608093A6
:100F200081008091810081608093810080918000A8
:100F30008160809380008091B10084608093B100D3
:100F40008091B00081608093B000809191008260B8
:100F500080939100809191008160809391008091B5
:100F600090008160809390008091A10082608093C6
:100F7000A1008091A10081608093A1008091A000D8
:100F800081608093A0008091210182608093210183
:100F900080912101816080932101809120018160F5
:100FA0008093200180917A00846080937A00809100
:100FB0007A00826080937A0080917A0081608093C9
:100FC0007A0080917A00806880937A001092C10044
:100FD00062E082E00E942C0262E083E00E942C0228
:100FE0008BE394E0909301028093000280916A0069
:100FF0008C7F816080936A00EC9A8CE094E09093FF
:1010000003028093020280916A00837F8460809350
:101010006A00ED9A60E086E10E942C0260E087E1C0
:101020000E942C0260E088E10E942C0260E086E3CE
:101030000E942C0260E08DE10E942C0261E08BE1B5
:101040000E942C0261E08AE10E942C0261E08CE1A6
:101050000E942C0261E08AE10E94FE0160E08CE1C6
:101060000E94FE0161E08BE10E94FE01E091A0027E
:10107000F091A10282E08083E0919C02F0919D02B8
:101080001082E0919E02F0919F028FEC808310927B
:10109000A802E091A402F091A50286E08083E0918D
:1010A000A202F091A302808180618083E091A2027C
:1010B000F091A302808188608083E091A202F09188
:1010C000A302808180688083E091A202F091A30254
:1010D00080818F7D808388248A9483E0982EA12C40
:1010E000B12C0BE91FE09AE0492E512C612C712C98
:1010F0001E012BE1220E311CFF24F39486E10E9495
:10110000D501892B51F587E10E94D501892B29F55D
:1011100080917B00877F80937B0080E480937C00BC
:1011200080917A00806480937A0080917A0086FDB5
:10113000FCCF2091780030917900ACEFBEEF0E9497
:10114000DE0AA50194010E94860A245D3E4F4F4F9E
:101150005F4F309311022093100286E10E94D50167
:10116000019709F056C087E10E94D501892B09F04B
:1011700050C00E949D0386E10E94D501019719F499
:101180000E94B103F8CF4091830250918402609194
:10119000850270918602CE0101960E9423056DE2C0
:1011A00072E0CE0182960E945B05BE016F5F7F4FA9
:1011B000CE0182960E94BC040E947704CE018296E2
:1011C0000E948C04CE0101960E948C0440917F0203
:1011D000509180026091810270918202CE0101964D
:1011E0000E94230562E472E0CE0182960E945B05B4
:1011F000BE016F5F7F4FCE0182960E94BC040E94A9
:101200007704CE0182960E948C04CE0101960E9442
:101210008C0487E10E94D501019709F04EC086E158
:101220000E94D501892B09F048C00E94F10340912A
:101230008302509184026091850270918602CE01F2
:1012400001960E9423056DE272E0CE0182960E9413
:101250005B05BE016F5F7F4FCE0182960E94BC048A
:101260000E947704CE0182960E948C04CE010196E2
:101270000E948C0440917F02509180026091810213
:1012800070918202CE0101960E94230562E472E011
:10129000CE0182960E945B05BE016F5F7F4FCE013B
:1012A00082960E94BC040E947704CE0182960E941E
:1012B0008C04CE0101960E948C0488E10E94D50125
:1012C000892B09F083C086E10E94D501019709F0BE
:1012D00076C010927E0280917C02882371F30E9476
:1012E000E803882321F0C8010197F1F7F8CFC8017E
:1012F0000197F1F78CE592E00E946A0419A26E0151
:1013000081E2C80ED11C20E735E043E050E0CA017D
:10131000B901A30192010E94A50A605DF6016293E2
:101320006F01E215F30599F7C1010E946A048AE290
:1013300092E00E946A04C8010197F1F7809183024C
:1013400090918402A0918502B091860280379540E9
:10135000A340B105F4F40E949D0380918302909113
:101360008402A0918502B091860280379540A34007
:10137000B10534F40E94B1030E94E803882369F3A5
:101380000E94E803882309F498CFC8010197F1F778
:10139000F7CF0E94A7038091830290918402A091CD
:1013A0008502B091860281379540A340B10544F390
:1013B0000E94B1030E94E803882369F3E1CF809182
:1013C0007E0281117ACFF0927E0277CF80917E02E9
:1013D000882359F18DE10E94D501019711F4F09213
:1013E0007D028CE390E090931102809310020E94A2
:1013F000F1031092830210928402109285021092DF
:10140000860210927F021092800210928102109246
:10141000820285E792E00E946A048AE292E00E94DA
:101420006A04F0927C0210927E020E946C0366CEE7
:10143000E0E9F2E01382128288EE93E0A0E0B0E0EF
:1014400084839583A683B7838CE192E09183808324
:1014500085EC90E09587848784EC90E09787868779
:1014600080EC90E0918B808B81EC90E0938B828B71
:1014700082EC90E0958B848B86EC90E0978B868B4A
:10148000118E128E138E148E0895BB272A3051F4BC
:10149000992342F4BDE290958095709561957F4FB8
:1014A0008F4F9F4F0C94550ABB27FA01A62F621746
:1014B000710581059105330B30FB66F0AA27660F95
:1014C000771F881F991FAA1FA21710F0A21B6395F0
:1014D0003850A9F7A05DAA3308F0A95DA19336F7AB
:1014E000B111B1931082CA010C94760ADC01FC019F
:1014F000672F71917723E1F7329704C07C916D9348
:1015000070836291AE17BF07C8F30895052E97FB4D
:101510001EF400940E949D0A57FD07D00E94A50A60
:1015200007FC03D04EF40C949D0A509540953095DD
:1015300021953F4F4F4F5F4F08959095809570953F
:1015400061957F4F8F4F9F4F0895A1E21A2EAA1BDE
:10155000BB1BFD010DC0AA1FBB1FEE1FFF1FA21763
:10156000B307E407F50720F0A21BB30BE40BF50B60
:10157000661F771F881F991F1A9469F760957095E9
:10158000809590959B01AC01BD01CF010895A29F6C
:10159000B001B39FC001A39F700D811D1124911D47
:1015A000B29F700D811D1124911D0895EE0FFF1F34
:1015B000881F8BBF0790F691E02D19940E94C70AEF
:1015C000332312F48A1B9B0B0C94E80A0E94C70A6F
:1015D000B7FF0895821B930B08950F931F93CF932A
:1015E000DF938230910510F482E090E0E0912F03C8
:1015F000F091300330E020E0B0E0A0E0309799F4C3
:101600002115310509F44AC0281B390B2430310556
:10161000D8F58A819B816115710589F1FB0193835E
:101620008283FE0111C040815181028113814817DC
:101630005907E0F04817590799F4109761F012968E
:101640000C93129713961C933296CF01DF91CF9192
:101650001F910F91089500932F0310933003F4CF3F
:101660002115310551F04217530738F0A901DB016C
:101670009A01BD01DF01F801C1CFEF01F9CF9093CD
:10168000300380932F03CDCFFE01E20FF31F819330
:1016900091932250310939832883D7CF20912D038C
:1016A00030912E03232B41F4209114023091150226
:1016B00030932E0320932D032091120230911302B8
:1016C0002115310541F42DB73EB7409116025091D6
:1016D0001702241B350BE0912D03F0912E03E21726
:1016E000F307A0F42E1B3F0B2817390778F0AC0145
:1016F0004E5F5F4F2417350748F04E0F5F1F509322
:101700002E0340932D03819391939FCFF0E0E0E06F
:101710009CCFCF93DF930097E9F0FC0132971382BF
:101720001282A0912F03B0913003ED0130E020E050
:101730001097A1F420813181820F931F20912D03F6
:1017400030912E032817390709F061C0F0932E035A
:10175000E0932D03DF91CF910895EA01CE17DF07C3
:10176000E8F54A815B819E0141155105B1F7E90118
:10177000FB83EA8349915991C40FD51FEC17FD07EC
:1017800061F4808191810296840F951FE90199830C
:101790008883828193819B838A83F0E0E0E01296C4
:1017A0008D919C9113970097B9F52D913C911197CC
:1017B000CD010296820F931F20912D0330912E03AD
:1017C0002817390739F6309751F5109230031092E7
:1017D0002F03B0932E03A0932D03BCCFD383C283DA
:1017E00040815181840F951FC817D90761F44E5F5E
:1017F0005F4F88819981480F591F518340838A81A7
:101800009B81938382832115310509F0B0CFF0933A
:101810003003E0932F039ECFFD01DC01C0CF138284
:101820001282D7CF4F925F926F927F928F929F9248
:10183000AF92BF92CF92DF92EF92FF920F931F93DE
:10184000CF93DF938C01009799F4CB01DF91CF9177
:101850001F910F91FF90EF90DF90CF90BF90AF90CE
:101860009F908F907F906F905F904F900C94ED0AB7
:10187000FC01E60FF71F9C0122503109E217F30724
:1018800008F4AEC0D901CD91DC911197C617D707E6
:1018900020F1C530D10578F0CE010497861797075F
:1018A00050F0C61BD70B2297C193D1936D937C93B5
:1018B000CF010E94890BC801DF91CF911F910F9139
:1018C000FF90EF90DF90CF90BF90AF909F908F9060
:1018D0007F906F905F904F9008955B01AC1ABD0AA6
:1018E0004C018C0E9D1EA0912F03B0913003512C02
:1018F000412CF12CE12C109731F580912D03909122
:101900002E038815990509F05CC04616570608F0A5
:1019100058C08091120290911302009741F48DB744
:101920009EB74091160250911702841B950BE81741
:10193000F90708F055C0F0932E03E0932D03F90149
:1019400071836083B8CF8D919C91119712966C90A2
:10195000129713967C901397A815B90559F56C0149
:1019600042E0C40ED11CCA14DB0420F1AC014A19B8
:101970005B09DA011296159780F0628273825183B7
:101980004083D9016D937C93E114F10471F0D70188
:101990001396FC93EE9312978ECF22968C0F9D1F79
:1019A000F90191838083F301EFCFF0933003E0934B
:1019B0002F0381CF4816590608F42C017D01D3016D
:1019C0009ACFCB010E94ED0A7C01009749F0AE014D
:1019D000B8010E94F30CC8010E94890B87016BCFEC
:1019E00010E000E068CFFB01DC0102C001900D9225
:1019F00041505040D8F70895FB01DC0101900D9251
:0A1A00000020E1F70895F894FFCFED
:101A0A00680268026802680268026802680268027C
:101A1A003C0000003103800000000000FF02690260
:101A2A0096024C03C702A502B9020D0A00456E636D
:101A3A006F64657220737461746520504F53203D42
:101A4A00200053746570706572206D6F746F722018
:101A5A00706F736974696F6E203D2000476F696EFD
:101A6A006720746F2073657420706F736974696F6F
:0C1A7A006E203D20004241534544000016
:00000001FF
