:100000000C943B010C941C070C94F1060C94C6064E
:100010000C949B060C9470060C9445060C941A06DE
:100020000C94EF050C946C010C946C010C946C0115
:100030000C946C010C946C010C946C010C946C018C
:100040000C946C010C946C010C946C010C946C017C
:100050000C946C010C946C010C946C010C94A5052F
:100060000C946C010C9471070C9447070C946C0170
:100070000C946C010C946C010C946C010C946C014C
:100080000C946C010C946C010C946C010C946C013C
:100090000C946C010C946C010C946C010C946C012C
:1000A0000C946C010C946C010C946C010C946C011C
:1000B0000C946C010C946C010C946C010C946C010C
:1000C0000C946C010C946C010C946C010C946C01FC
:1000D0000C946C010C946C010C946C010C946C01EC
:1000E0000C946C010C94B1010C944C030C94BF0162
:1000F0000C948C010C94C7020C9496020C94F1039E
:100100000C9420040C94A7010C9468020C94B9017F
:100110000C9496010C94CC010C9492010C949A01CD
:100120000C94C3010C94A5020C94C7010C94D1014A
:100130000C94B9020C94A1010C9469020C94B501C1
:100140000C94CD010C94AB010C949E010C94370AD5
:100150000C94FF0200002100240027002A002D003B
:100160003000330001010000040107010A01000012
:100170002200250028002B002E003100340002014F
:100180000000050108010B010000200023002600EB
:1001900029002C002F00320000010000030106019D
:1001A00009010505050507050808080802020202FD
:1001B0000A0A080804040404010101010101010103
:1001C0000303030303030303040707070C0C0C0CCE
:1001D0000C0C0C0C020202020606060606060606B7
:1001E0000B0B0B0B0B0B0B0B010210202008081044
:1001F0002040102040800201020108040201010297
:10020000040810204080804020100804020180046F
:1002100002018040201008040201080402010102CA
:1002200004081020408001020408102040800000D3
:100230000A0B02090C0D0E08070304010000000060
:1002400000000000000000000000000000000000AE
:10025000000000000000000000001211100000006B
:10026000000000000000000000000000000000008E
:1002700000000000370A11241FBECFEFD1E2DEBF1D
:10028000CDBF00E00CBF12E0A0E0B2E0E8E4FAE18C
:1002900000E00BBF02C007900D92A638B107D9F756
:1002A00023E0A6E8B2E001C01D92AB33B207E1F74C
:1002B00011E0CBE3D1E000E006C021970109802FD7
:1002C000FE010E94F50ACA33D10780E00807A9F7AA
:1002D0000E94A7070C94220D0C94000081508231DB
:1002E00008F05AC0E82FF0E08827E658FE4F8F4FFD
:1002F0000C94F50A9A019E018C0192019601CC01A1
:10030000A101A701AB01B101B501B901BF01C30151
:10031000CC01C701CD01D101809180008F778093FE
:1003200080000895809180008F7DF9CF80918000BA
:10033000877FF5CF84B58F7784BD089584B58F7D91
:10034000FBCF8091B0008F778093B00008958091AB
:10035000B0008F7DF9CF809190008F7780939000CF
:100360000895809190008F7DF9CF80919000877FD4
:10037000F5CF8091A0008F778093A00008958091A1
:10038000A0008F7DF9CF8091A000877FF5CF80916D
:1003900020018F77809320010895809120018F7D27
:1003A000F9CF80912001877FF5CFCF93DF93282F5E
:1003B00030E0F901E25DFD4F8491F901E851FE4F13
:1003C000D491F901EE55FE4FC491CC23A1F08111D7
:1003D0000E946E01EC2FF0E0EE0FFF1FE857FE4F7A
:1003E000A591B491EC91ED2381E090E009F480E0D7
:1003F000DF91CF91089580E090E0FACF1F93CF93E3
:10040000DF93282F30E0F901E25DFD4F8491F9017F
:10041000E851FE4FD491F901EE55FE4FC491CC2323
:10042000A9F0162F81110E946E01EC2FF0E0EE0F63
:10043000FF1FE259FE4FA591B4918FB7F894EC914C
:10044000111108C0D095DE23DC938FBFDF91CF91CF
:100450001F910895DE2BF8CFCF93DF9390E0FC013E
:10046000E851FE4F24918E559E4FFC0184918823C4
:10047000C9F090E0880F991FFC01EC5AFE4FA5913E
:10048000B491FC01E259FE4FC591D49161110DC0A8
:100490009FB7F8948C91209582238C938881282390
:1004A00028839FBFDF91CF910895623051F49FB7A9
:1004B000F8943C91822F809583238C93E8812E2B96
:1004C000EFCF8FB7F894EC912E2B2C938FBFEACF00
:1004D0000895AF92BF92CF92DF92EF92FF920F9367
:1004E0001F93CF93DF936C017B018B01040F151FCA
:1004F000EB015E01AE18BF08C017D10759F0699132
:10050000D601ED91FC910190F081E02DC601199585
:10051000892B79F7C501DF91CF911F910F91FF9042
:10052000EF90DF90CF90BF90AF900895FC01538D76
:10053000448D252F30E0842F90E0821B930B5417BD
:1005400010F0CF96089501970895FC01918D828D4A
:10055000981761F0A28DAE0FBF2FB11D5D968C91E3
:10056000928D9F5F9F73928F90E008958FEF9FEF22
:100570000895FC01918D828D981731F0828DE80FDE
:10058000F11D858D90E008958FEF9FEF0895FC0198
:10059000918D228D892F90E0805C9F4F821B910965
:1005A0008F73992708958AE992E00E94C70221E09B
:1005B000892B09F420E0822F0895FC01A48DA80F57
:1005C000B92FB11DA35ABF4F2C91848D90E0019695
:1005D0008F739927848FA689B7892C93A089B189B5
:1005E0008C91837080648C93938D848D981306C056
:1005F0000288F389E02D80818F7D80830895EF92BA
:10060000FF920F931F93CF93DF93EC0181E0888FCC
:100610009B8D8C8D98131AC0E889F989808185FF9C
:1006200015C09FB7F894EE89FF896083E889F9893E
:1006300080818370806480839FBF81E090E0DF9140
:10064000CF911F910F91FF90EF900895F62E0B8D93
:1006500010E00F5F1F4F0F731127E02E8C8D8E114E
:100660000CC00FB607FCFACFE889F989808185FFB5
:10067000F5CFCE010E94DD02F1CFEB8DEC0FFD2F07
:10068000F11DE35AFF4FF0829FB7F8940B8FEA8970
:10069000FB8980818062CFCFCF93DF93EC01888D7F
:1006A0008823B9F0AA89BB89E889F9898C9185FDED
:1006B00003C0808186FD0DC00FB607FCF7CF8C917B
:1006C00085FFF2CF808185FFEDCFCE010E94DD0254
:1006D000E9CFDF91CF91089580E090E0892B29F058
:1006E0000E94D30281110E94000080E090E0892BDB
:1006F00049F080E090E0892B29F00E9400008111F0
:100700000E94000080E090E0892B49F080E090E0BA
:10071000892B29F00E94000081110E94000080E0D6
:1007200090E0892B49F080E090E0892B29F00E942D
:10073000000081110C94000008958CE10E94D50105
:10074000892B21F461E08CE10C94FE0108958CE189
:100750000E94D501019721F460E08CE10C94FE0128
:1007600008958BE10E94D50161E0892B09F060E0DA
:100770008BE10E94FE018091100290911102823063
:10078000910538F0880F991F880F991F05970197D9
:10079000F1F78CE10E94D5014091890250918A02C3
:1007A00060918B0270918C02019769F44F5F5F4FEB
:1007B0006F4F7F4F4093890250938A0260938B0260
:1007C00070938C0208954150510961097109F2CF6B
:1007D00088E10E94D50121E0892B09F020E0822FD9
:1007E000089583E00E94D501019789F482E00E9478
:1007F000D501892B89F480918D0290918E02A09170
:100800008F02B09190020197A109B10910C082E056
:100810000E94D501892B79F780918D0290918E02EB
:10082000A0918F02B09190020196A11DB11D8093FD
:100830008D0290938E02A0938F02B0939002089540
:1008400082E00E94D501019789F483E00E94D501DE
:10085000892B89F480918D0290918E02A0918F0254
:10086000B09190020196A11DB11D10C083E00E94BD
:10087000D501892B79F780918D0290918E02A091FC
:100880008F02B09190020197A109B10980938D0266
:1008900090938E02A0938F02B09390020895FC0172
:1008A00001900020E9F73197AF01481B590BBC01BB
:1008B0008AE992E00C946902CF93DF93FC014481B2
:1008C0005581608171818AE992E00E946902EC01A0
:1008D0008AE292E00E944F048C0F9D1FDF91CF911E
:1008E0000895CF93DF938DE292E00E944F048AE255
:1008F00092E00E944F048BEA94E00197F1F70E9486
:10090000A703C1E08DE10E94D501019739F08091E4
:100910008702811108C0DF91CF91089587E10E947D
:10092000D5010197A1F70E94B1030E94E803882333
:1009300051F0CBEAD4E0CE010197F1F70E94E80331
:100940008111F9CFE8CF8DE10E94D5010197D1F255
:1009500010928702C093860210928D0210928E022E
:1009600010928F02109290021092890210928A02C5
:1009700010928B0210928C0287E392E00E944F0447
:100980008AE292E00E944F04BDCFFC0180819181F8
:10099000009711F00C94A80B08950F931F93CF9319
:1009A000DF93EC0188819981009759F02A813B817E
:1009B0002617370730F081E0DF91CF911F910F911B
:1009C00008958B016F5F7F4F0E94310C009759F0A3
:1009D000998388831B830A832C813D81232B59F7BC
:1009E000FC011082E8CF80E0E7CFEF92FF920F93F7
:1009F0001F93CF93DF93EC01FB01E080F180E114C2
:100A0000F10411F10481158101151105A9F08C8102
:100A10009D81080F191FB801CE010E94CD048823C3
:100A200099F0288139818C819D81B701820F931FB4
:100A30000E941B0D1D830C83CE01DF91CF911F916E
:100A40000F91FF90EF90089588819981009711F0A0
:100A50000E94A80B198218821D821C821B821A8296
:100A6000EBCFEF92FF920F931F93CF93DF93EC01A5
:100A70007B018A01BA010E94CD042881398181114C
:100A800014C02115310519F0C9010E94A80B198263
:100A900018821D821C821B821A82CE01DF91CF91A7
:100AA0001F910F91FF90EF9008951D830C83B70164
:100AB000C9010E941B0DF1CFEF92FF920F931F937C
:100AC000CF93DF93CDB7DEB7A2970FB6F894DEBF12
:100AD0000FBECDBF8C01CB01BA01F801118210828B
:100AE00013821282158214822AE0AE014F5F5F4F9B
:100AF0007A010E94640AF70101900020E9F731971A
:100B0000AF014E195F09B701C8010E943105A296D5
:100B10000FB6F894DEBF0FBECDBFDF91CF911F910E
:100B20000F91FF90EF900895FC01118210821382C3
:100B3000128215821482FB0101900020E9F731979F
:100B4000AF01461B570B0C9431051F920F920FB645
:100B50000F9211242F933F938F939F93AF93BF9343
:100B60008091960290919702A0919802B09199027B
:100B70003091950223E0230F2D3758F50196A11DE2
:100B8000B11D209395028093960290939702A093B3
:100B90009802B09399028091910290919202A09153
:100BA0009302B09194020196A11DB11D8093910210
:100BB00090939202A0939302B0939402BF91AF914D
:100BC0009F918F913F912F910F900FBE0F901F908B
:100BD000189526E8230F0296A11DB11DD2CF1F92B2
:100BE0000F920FB60F9211240BB60F922F933F93D3
:100BF0004F935F936F937F938F939F93AF93BF9325
:100C0000EF93FF93E0910E02F0910F021995FF917F
:100C1000EF91BF91AF919F918F917F916F915F9174
:100C20004F913F912F910F900BBE0F900FBE0F90E1
:100C30001F9018951F920F920FB60F9211240BB6AA
:100C40000F922F933F934F935F936F937F938F9365
:100C50009F93AF93BF93EF93FF93E0910C02F091BA
:100C60000D021995FF91EF91BF91AF919F918F91D7
:100C70007F916F915F914F913F912F910F900BBE9C
:100C80000F900FBE0F901F9018951F920F920FB6E6
:100C90000F9211240BB60F922F933F934F935F93B4
:100CA0006F937F938F939F93AF93BF93EF93FF9334
:100CB000E0910202F09103021995FF91EF91BF912B
:100CC000AF919F918F917F916F915F914F913F91E4
:100CD0002F910F900BBE0F900FBE0F901F90189585
:100CE0001F920F920FB60F9211240BB60F922F93F3
:100CF0003F934F935F936F937F938F939F93AF93A4
:100D0000BF93EF93FF93E0910002F09101021995D8
:100D1000FF91EF91BF91AF919F918F917F916F91D3
:100D20005F914F913F912F910F900BBE0F900FBE8F
:100D30000F901F9018951F920F920FB60F921124CB
:100D40000BB60F922F933F934F935F936F937F93C5
:100D50008F939F93AF93BF93EF93FF93E0910A021A
:100D6000F0910B021995FF91EF91BF91AF919F9177
:100D70008F917F916F915F914F913F912F910F9044
:100D80000BBE0F900FBE0F901F9018951F920F92E1
:100D90000FB60F9211240BB60F922F933F934F93E0
:100DA0005F936F937F938F939F93AF93BF93EF93D3
:100DB000FF93E0910802F09109021995FF91EF91DC
:100DC000BF91AF919F918F917F916F915F914F9163
:100DD0003F912F910F900BBE0F900FBE0F901F9061
:100DE00018951F920F920FB60F9211240BB60F9207
:100DF0002F933F934F935F936F937F938F939F9323
:100E0000AF93BF93EF93FF93E0910602F091070237
:100E10001995FF91EF91BF91AF919F918F917F9124
:100E20006F915F914F913F912F910F900BBE0F905B
:100E30000FBE0F901F9018951F920F920FB60F9232
:100E400011240BB60F922F933F934F935F936F93A1
:100E50007F938F939F93AF93BF93EF93FF93E09113
:100E60000402F09105021995FF91EF91BF91AF91A6
:100E70009F918F917F916F915F914F913F912F91B2
:100E80000F900BBE0F900FBE0F901F9018951F92E2
:100E90000F920FB60F9211240BB60F922F933F9320
:100EA0004F935F936F937F938F939F93AF93BF9372
:100EB000EF93FF938AE992E00E94DD02FF91EF91A8
:100EC000BF91AF919F918F917F916F915F914F9162
:100ED0003F912F910F900BBE0F900FBE0F901F9060
:100EE00018951F920F920FB60F9211240BB60F9206
:100EF0002F938F939F93EF93FF93E091AA02F0912A
:100F0000AB028081E091B002F091B10282FD1DC080
:100F100090818091B3028F5F8F732091B40282170A
:100F200041F0E091B302F0E0E656FD4F958F8093DB
:100F3000B302FF91EF919F918F912F910F900BBE74
:100F40000F900FBE0F901F9018958081F2CFCF9316
:100F5000DF93CDB7DEB7A7970FB6F894DEBF0FBE0D
:100F6000CDBF789484B5826084BD84B5816084BD32
:100F700085B5826085BD85B5816085BD80916E0037
:100F8000816080936E001092810080918100826068
:100F900080938100809181008160809381008091A5
:100FA00080008160809380008091B1008460809394
:100FB000B1008091B00081608093B0008091910079
:100FC0008260809391008091910081608093910074
:100FD000809190008160809390008091A100826058
:100FE0008093A1008091A10081608093A1008091F5
:100FF000A00081608093A000809121018260809395
:101000002101809121018160809321018091200143
:1010100081608093200180917A00846080937A00BF
:1010200080917A00826080937A0080917A0081605A
:1010300080937A0080917A00806880937A00109281
:10104000C10062E082E00E942C0262E083E00E9424
:101050002C0280E294E09093010280930002809140
:101060006A008C7F816080936A00EC9A81EF93E044
:10107000909303028093020280916A00837F8460D0
:1010800080936A00ED9A60E086E10E942C0260E0A5
:1010900087E10E942C0260E088E10E942C0260E05F
:1010A00086E30E942C0260E08DE10E942C0261E048
:1010B0008BE10E942C0261E08AE10E942C0261E037
:1010C0008CE10E942C0261E08AE10E94FE0160E056
:1010D0008CE10E94FE0161E08BE10E94FE01E09143
:1010E000AA02F091AB0282E08083E091A602F09127
:1010F000A7021082E091A802F091A9028FEC8083F0
:101100001092B202E091AE02F091AF0286E08083CD
:10111000E091AC02F091AD02808180618083E0912A
:10112000AC02F091AD02808188608083E091AC02D6
:10113000F091AD02808180688083E091AC02F091F3
:10114000AD0280818F7D808344244A9483E0582EB1
:10115000612C712C0BE91FE09AE0892E912CA12CB7
:10116000B12C6E012BE1C20ED11C3324339486E1E5
:101170000E94D501892B51F587E10E94D501892B69
:1011800029F580917B00877F80937B0080E48093AA
:101190007C0080917A00806480937A0080917A004C
:1011A00086FDFCCF2091780030917900ACEFBEEF46
:1011B0000E94FD0AA30192010E94A50A245D3E4FF0
:1011C0004F4F5F4F309311022093100286E10E942F
:1011D000D501019709F056C087E10E94D501892BFE
:1011E00009F050C00E949D0386E10E94D50101973D
:1011F00019F40E94B103F8CF40918D0250918E02F4
:1012000060918F0270919002CE0101960E945C0560
:101210006DE372E0CE0182960E949405BE016F5F7D
:101220007F4FCE0182960E94F5040E945C04CE019D
:1012300082960E94C504CE0101960E94C504409189
:10124000890250918A0260918B0270918C02CE01CA
:1012500001960E945C0562E572E0CE0182960E94D2
:101260009405BE016F5F7F4FCE0182960E94F50408
:101270000E945C04CE0182960E94C504CE010196B4
:101280000E94C50487E10E94D501019709F04EC074
:1012900086E10E94D501892B09F048C00E947104A3
:1012A00040918D0250918E0260918F027091900258
:1012B000CE0101960E945C056DE372E0CE0182963C
:1012C0000E949405BE016F5F7F4FCE0182960E94FF
:1012D000F5040E945C04CE0182960E94C504CE01F2
:1012E00001960E94C5044091890250918A02609142
:1012F0008B0270918C02CE0101960E945C0562E522
:1013000072E0CE0182960E949405BE016F5F7F4F0E
:10131000CE0182960E94F5040E945C04CE01829662
:101320000E94C504CE0101960E94C50488E10E9476
:10133000D501892B09F083C086E10E94D501019770
:1013400009F076C01092880280918602882371F39A
:101350000E94E803882321F0C8010197F1F7F8CF34
:10136000C8010197F1F78CE692E00E944F0419A2A0
:101370007E0181E2E80EF11C20E735E043E050E019
:10138000CA01B901A50194010E94C40A605DF70178
:1013900062937F01EC15FD0599F7C6010E944F0489
:1013A0008AE292E00E944F04C8010197F1F7809110
:1013B0008D0290918E02A0918F02B09190028037A1
:1013C0009540A340B105F4F40E949D0380918D02E5
:1013D00090918E02A0918F02B0919002803795403B
:1013E000A340B10534F40E94B1030E94E8038823AE
:1013F00069F30E94E803882309F498CFC801019794
:10140000F1F7F7CF0E94A70380918D0290918E0291
:10141000A0918F02B091900281379540A340B10511
:1014200044F30E94B1030E94E803882369F3E1CFEB
:101430008091880281117ACF3092880277CF809193
:101440008802882389F08DE10E94D501019711F46B
:10145000309287028CE390E0909311028093100207
:101460000E947104109288020E946C0380CEEAE907
:10147000F2E01382128288EE93E0A0E0B0E0848371
:101480009583A683B7838CE192E09183808385EC7A
:1014900090E09587848784EC90E09787868780EC3E
:1014A00090E0918B808B81EC90E0938B828B82EC2F
:1014B00090E0958B848B86EC90E0978B868B118ED9
:1014C000128E138E148E0895BB272A3051F499235F
:1014D00042F4BDE290958095709561957F4F8F4F56
:1014E0009F4F0C94740ABB27FA01A62F621771054F
:1014F00081059105330B30FB66F0AA27660F771F35
:10150000881F991FAA1FA21710F0A21B63953850BD
:10151000A9F7A05DAA3308F0A95DA19336F7B11130
:10152000B1931082CA010C94950ADC01FC01672F6B
:1015300071917723E1F7329704C07C916D937083AA
:101540006291AE17BF07C8F30895052E97FB1EF4EE
:1015500000940E94BC0A57FD07D00E94C40A07FCF1
:1015600003D04EF40C94BC0A5095409530952195CB
:101570003F4F4F4F5F4F08959095809570956195BF
:101580007F4F8F4F9F4F0895A1E21A2EAA1BBB1BBE
:10159000FD010DC0AA1FBB1FEE1FFF1FA217B3073F
:1015A000E407F50720F0A21BB30BE40BF50B661F55
:1015B000771F881F991F1A9469F760957095809519
:1015C00090959B01AC01BD01CF010895A29FB00190
:1015D000B39FC001A39F700D811D1124911DB29F67
:1015E000700D811D1124911D0895EE0FFF1F881F9E
:1015F0008BBF0790F691E02D19940E94E60A3323E1
:1016000012F48A1B9B0B0C94070B0E94E60AB7FF8F
:101610000895821B930B08950F931F93CF93DF932D
:101620008230910510F482E090E0E0913903F0916E
:101630003A0330E020E0B0E0A0E0309799F42115C3
:10164000310509F44AC0281B390B24303105D8F57F
:101650008A819B816115710589F1FB0193838283E6
:10166000FE0111C040815181028113814817590741
:10167000E0F04817590799F4109761F012960C930F
:10168000129713961C933296CF01DF91CF911F9141
:101690000F9108950093390310933A03F4CF211565
:1016A000310551F04217530738F0A901DB019A01C7
:1016B000BD01DF01F801C1CFEF01F9CF90933A03EB
:1016C00080933903CDCFFE01E20FF31F81939193F5
:1016D0002250310939832883D7CF209137033091A5
:1016E0003803232B41F420911402309115023093DA
:1016F00038032093370320911202309113022115F1
:10170000310541F42DB73EB74091160250911702B2
:10171000241B350BE0913703F0913803E217F307F0
:10172000A0F42E1B3F0B2817390778F0AC014E5F51
:101730005F4F2417350748F04E0F5F1F5093380353
:1017400040933703819391939FCFF0E0E0E09CCFEB
:10175000CF93DF930097E9F0FC0132971382128256
:10176000A0913903B0913A03ED0130E020E01097E9
:10177000A1F420813181820F931F20913703309192
:1017800038032817390709F061C0F0933803E09354
:101790003703DF91CF910895EA01CE17DF07E8F50F
:1017A0004A815B819E0141155105B1F7E901FB8337
:1017B000EA8349915991C40FD51FEC17FD0761F4D5
:1017C000808191810296840F951FE9019983888316
:1017D000828193819B838A83F0E0E0E012968D9171
:1017E0009C9113970097B9F52D913C911197CD01DC
:1017F0000296820F931F20913703309138032817E8
:10180000390739F6309751F510923A03109239039F
:10181000B0933803A0933703BCCFD383C2834081F6
:101820005181840F951FC817D90761F44E5F5F4F30
:1018300088819981480F591F518340838A819B81F8
:10184000938382832115310509F0B0CFF0933A03D9
:10185000E09339039ECFFD01DC01C0CF13821282D9
:10186000D7CF4F925F926F927F928F929F92AF925B
:10187000BF92CF92DF92EF92FF920F931F93CF937D
:10188000DF938C01009799F4CB01DF91CF911F91E9
:101890000F91FF90EF90DF90CF90BF90AF909F900F
:1018A0008F907F906F905F904F900C940C0BFC0189
:1018B000E60FF71F9C0122503109E217F30708F4E5
:1018C000AEC0D901CD91DC911197C617D70720F191
:1018D000C530D10578F0CE0104978617970750F0F0
:1018E000C61BD70B2297C193D1936D937C93CF01E5
:1018F0000E94A80BC801DF91CF911F910F91FF901B
:10190000EF90DF90CF90BF90AF909F908F907F909F
:101910006F905F904F9008955B01AC1ABD0A4C0127
:101920008C0E9D1EA0913903B0913A03512C412C8D
:10193000F12CE12C109731F5809137039091380309
:101940008815990509F05CC04616570608F058C07E
:101950008091120290911302009741F48DB79EB7C7
:101960004091160250911702841B950BE817F90756
:1019700008F055C0F0933803E0933703F901718301
:101980006083B8CF8D919C91119712966C901297AD
:1019900013967C901397A815B90559F56C0142E090
:1019A000C40ED11CCA14DB0420F1AC014A195B0936
:1019B000DA011296159780F0628273825183408318
:1019C000D9016D937C93E114F10471F0D701139662
:1019D000FC93EE9312978ECF22968C0F9D1FF901E8
:1019E00091838083F301EFCFF0933A03E0933903BF
:1019F00081CF4816590608F42C017D01D3019ACFF6
:101A0000CB010E940C0B7C01009749F0AE01B8019C
:101A10000E94120DC8010E94A80B87016BCF10E035
:101A200000E068CFFB01DC0102C001900D92415043
:101A30005040D8F70895FB01DC0101900D92002081
:081A4000E1F70895F894FFCFCF
:101A4800680268026802680268026802680268023E
:101A58003C0000003B03800000000000FF02690218
:101A680096024C03C702A502B9020D0A006D6F76F3
:101A7800696E6720757000424153454400456E63A6
:101A88006F64657220737461746520504F53203DF4
:101A9800200053746570706572206D6F746F7220CA
:101AA800706F736974696F6E203D2000476F696EAF
:101AB8006720746F2073657420706F736974696F21
:061AC8006E203D2000002D
:00000001FF
